:100000000C9434000C9451000C9451000C94510049
:100010000C9451000C9451000C9451000C9451001C
:100020000C9451000C9451000C9451000C9451000C
:100030000C9451000C9451000C9403010C94510049
:100040000C9451000C9451000C9451000C945100EC
:100050000C9451000C9451000C9451000C945100DC
:100060000C9451000C94510011241FBECFEFD8E026
:10007000DEBFCDBF11E0A0E0B1E0EAE1F3E002C0F5
:1000800005900D92AC30B107D9F721E0ACE0B1E0BA
:1000900001C01D92AF30B207E1F70E94E8000C9456
:1000A0008B010C94000082E084BD9CE997BD809395
:1000B0006E0085E085BD0895E0ECF0E08081882346
:1000C000ECF78091C60008959093C5008093C4001A
:1000D00088E18093C10086E08093C20008952D9A44
:1000E00080EA8A95F1F785B1807C85B908951AB8C0
:1000F0002B9A85B1887F85B95F9B04C00E946F00F1
:100100005F99FCCF8FEF8AB90895CF93C82F0E94D3
:100110007700CBB985B1837F85B90E946F001BB88A
:10012000CF91089584B18C6284B98FE59AEE0197DE
:10013000F1F700C0000081E090E00E9485008FE3AD
:100140009FE10197F1F700C0000088E390E00E9472
:10015000850087EC90E00197F1F700C000008EE089
:1001600090E00E94850087EC90E00197F1F700C0D5
:1001700000000895CF93C82F0E947700CBB92B9829
:100180002A9A0E946F001BB8CF910895EF92FF92B8
:100190000F931F93CF93DF938C017C01C0E0D0E0DD
:1001A00006C0F70181917F010E94BA002196F801F3
:1001B00001900020E9F73197E01BF10BCE17DF0724
:1001C00080F3DF91CF911F910F91FF90EF900895F1
:1001D0000E94920087E690E00E9464000E94530013
:1001E000789480E091E00E94C6008DEB0E9485002B
:1001F00087EC90E00197F1F700C000000E945C00DE
:1002000080930C01FBCF1F920F920FB60F92112417
:100210000F931F932F933F934F935F936F937F930E
:100220008F939F93AF93BF93CF93DF93EF93FF93FE
:1002300080910C0120910D0130910E012F5F3F4FF5
:10024000243631052CF430930E0120930D0126C085
:1002500020E1829FC00111246FEF70E00E946301D2
:100260008B0110920E0110920D01C0E1D0E001153A
:10027000110531F08FEF0E94BA000150110903C03F
:1002800087E10E94BA00219791F78DEB0E948500CB
:1002900087EC90E00197F1F700C00000FF91EF912B
:1002A000DF91CF91BF91AF919F918F917F916F918E
:1002B0005F914F913F912F911F910F910F900FBE22
:1002C0000F901F90189597FB072E16F4009407D0F7
:1002D00077FD09D00E94770107FC05D03EF4909588
:1002E00081959F4F0895709561957F4F0895AA1B42
:1002F000BB1B51E107C0AA1FBB1FA617B70710F011
:10030000A61BB70B881F991F5A95A9F78095909542
:0A031000BC01CD010895F894FFCF61
:0C031A00606162636465666768690000EA
:00000001FF
