S00F0000666F75724C43442E7372656386
S11300000C9434000C9449000C9449000C9449005D
S11300100C9449000C9449000C9449000C94490038
S11300200C9449000C9449000C9449000C94490028
S11300300C9449000C9449000C9449000C94490018
S11300400C9449000C9449000C9449000C94490008
S11300500C9449000C9449000C9449000C944900F8
S11300600C9449000C94490011241FBECFEFD8E032
S1130070DEBFCDBF11E0A0E0B1E0ECE1F2E002C0F0
S113008005900D92AE31B107D9F70E94FC000C9493
S11300900C010C9400002D9A00C02D980895CF9364
S11300A0DF93D82F662311F02A9A01C02A982B983F
S11300B08AB18F608AB9CBB1C07F8D2F82958F7042
S11300C08C2B8BB90E944B00DF70DC2BDBB90E94B8
S11300D04B00CF60CBB9DF91CF910895882311F005
S11300E02A9A01C02A982B9A8AB1807F8AB92D9ABC
S11300F000C029B12D9800C02D9A00C099B1229555
S1130100207F892F8F702D98822B089580E00E9484
S11301106E008823DCF300C080E00E946E00089526
S1130120CF93C82F0E94860060E08C2F0E944F005E
S1130130CF91089581E00E9490000895CF93C82F35
S11301400E948600CA3049F4803410F080E001C077
S113015080E480580E94900004C061E08C2F0E94CB
S11301604F00CF910895CF93DF93EC012196FC01CA
S11301708081882329F00E949E0089918111FBCF00
S1130180DF91CF9108951F93CF93DF93182F9AB1E6
S11301909F609AB9229A239A259AE0EAFFE0319760
S11301A0F1F7599A589A0E944B00E0EEF4E0319727
S11301B0F1F70E944B00C0E1D0E0FE013197F1F766
S11301C00E944B00FE013197F1F758980E944B00B2
S11301D02197F1F788E20E94900088E00E94900045
S11301E00E949A0086E00E949000812F0E94900055
S11301F0DF91CF911F9108958CE00E94C3000E946B
S11302009A0080E091E00E94B3008FE091E00E94A8
S10F0210B30080E090E00895F894FFCF64
S113021C486F6C61207669746568203A290A00423B
S111022C75656E6F2063686175203A280000C6
S9030000FC
