:100000000C9434000C9449000C9449000C94490061
:100010000C9449000C9449000C9449000C9449003C
:100020000C9449000C9449000C9449000C9449002C
:100030000C9449000C9449000C9449000C9449001C
:100040000C9449000C9449000C9449000C9449000C
:100050000C9449000C9449000C9449000C944900FC
:100060000C9449000C94490011241FBECFEFD8E036
:10007000DEBFCDBF11E0A0E0B1E0E4E1F1E002C0FD
:1000800005900D92A030B107D9F70E945E000C9444
:1000900088000C940000E0ECF0E0908195FFFDCF2B
:1000A0008093C60008959093C5008093C40088E1B2
:1000B0008093C10086E08093C20008958FE190E0B4
:1000C0000E945300789480E90E944B008CE30E94C8
:1000D0004B0080E40E944B002FEF89E698E121500D
:1000E00080409040E1F700C0000080E80E944B0093
:1000F0008CE30E944B0080E40E944B002FEF89E6C6
:1001000098E1215080409040E1F700C00000DBCF33
:04011000F894FFCF91
:00000001FF
