S00F00004932435F3332352E737265635E
S11300000C942E000C9443000C9443000C94430075
S11300100C9443000C9443000C9443000C94430050
S11300200C9443000C9443000C9443000C94430040
S11300300C9443000C9443000C9443000C94430030
S11300400C9443000C9443000C9443000C94430020
S11300500C9443000C9443000C94430011241FBEE1
S1130060CFEFD8E0DEBFCDBF11E0A0E0B1E0EAEB16
S1130070F1E002C005900D92A430B107D9F70E94B7
S1130080BF000C94DB000C940000E1E6F0E080E893
S1130090808310820895759A749A6C9A6D9A8FEF82
S11300A08093BA008AE28093B80080EF8093B9000D
S11300B008958093B900E8EBF0E08BE2A9EBB0E09F
S11300C092E49A95F1F700C08083649BFECF92E49A
S11300D09A95F1F700C080839C9196FFF1CF82E45A
S11300E08A95F1F700C0EAEBF0E080819FEF9083FE
S11300F06D9A0895749A649BFECF759882E48A95EC
S1130100F1F700C07498759A08957598749A649B71
S1130110FECF82E48A95F1F700C0759A82E48A954D
S1130120F1F700C00895809100010E94590080FDFC
S113013010920201809102018823F1F308957498CA
S11301408093BA00809101010E9459006D9808952E
S1130150CF936D98809101010E945900C82F8FEFB1
S11301608093BA00809100010E9459000E9485008A
S11301708C2FCF91089581E087B988B908950E94A2
S113018045000E944B000E947A0080EE0E949F006E
S11301900E94930088E10E949F000E9493000E94A5
S11301A0BB000E947A0081EE0E949F000E94A8007A
S10D01B00E94BB00FDCFF894FFCFBE
S10701BAFEF0AA00A5
S9030000FC
