:100000000C9434000C9446000C9446000C9446006A
:100010000C9446000C9446000C9446000C94460048
:100020000C9446000C9446000C9446000C94460038
:100030000C9446000C9446000C946E000C94460000
:100040000C9446000C9446000C9446000C94460018
:100050000C9446000C94D0000C9446000C9446007E
:100060000C9446000C94460011241FBECFEFD8E03C
:10007000DEBFCDBF21E0A0E0B1E001C01D92A630FF
:10008000B207E1F70E9460000C9468010C94000034
:10009000EAE7F0E08081806480830895ECE7F0E097
:1000A000808181648083EAE7F0E080818D6A8083CB
:1000B000EEE7F0E08081826080830E94480008952E
:1000C00088E384B982E084BD97E597BD80936E0094
:1000D000789485E085BD0E944E00FFCF1F920F925D
:1000E0000FB60F921124CF92DF92EF92FF922F93CF
:1000F0003F934F935F936F937F938F939F93AF93B0
:10010000BF93EF93FF9380910401909105010196B5
:10011000833391052CF490930501809304012BC047
:100120001092050110920401C0900001D0900101CD
:10013000E0900201F090030120E030E048E453E455
:10014000C701B6010E940201181624F02B9A2C98C0
:100150002D9811C020E030E048EC53E4C701B6010F
:100160000E940201181624F02C9A2B982D9803C097
:100170002D9A2C982B98FF91EF91BF91AF919F9161
:100180008F917F916F915F914F913F912F91FF9050
:10019000EF90DF90CF900F900FBE0F901F901895AB
:1001A0001F920F920FB60F9211242F933F934F93EC
:1001B0005F936F937F938F939F93AF93BF93EF93CF
:1001C000FF93609178007091790080E090E00E9448
:1001D00007016093000170930101809302019093E5
:1001E0000301FF91EF91BF91AF919F918F917F910B
:1001F0006F915F914F913F912F910F900FBE0F9094
:100200001F9018950E94440108F481E00895E89435
:1002100009C097FB3EF490958095709561957F4F4E
:100220008F4F9F4F9923A9F0F92F96E9BB279395FC
:10023000F695879577956795B795F111F8CFFAF40C
:10024000BB0F11F460FF1BC06F5F7F4F8F4F9F4F3D
:1002500016C0882311F096E911C0772321F09EE89B
:10026000872F762F05C0662371F096E8862F70E001
:1002700060E02AF09A95660F771F881FDAF7880FDB
:100280009695879597F90895990F0008550FAA0B31
:10029000E0E8FEEF16161706E807F907C0F0121699
:1002A0001306E407F50798F0621B730B840B950B9C
:1002B00039F40A2661F0232B242B252B21F40895F1
:1002C0000A2609F4A140A6958FEF811D811D08958E
:0402D000F894FFCFD0
:00000001FF
