:100000000C9434000C9451000C9451000C94510049
:100010000C9451000C9451000C9451000C9451001C
:100020000C9451000C9451000C9451000C9451000C
:100030000C9451000C9451000C9451000C945100FC
:100040000C9451000C9451000C9451000C945100EC
:100050000C9451000C9451000C9451000C945100DC
:100060000C9451000C94510011241FBECFEFD8E026
:10007000DEBFCDBF11E0A0E0B1E0E0E0F2E002C001
:1000800005900D92A030B107D9F721E0A0E0B1E0D2
:1000900001C01D92A230B207E1F70E94A8000C94A3
:1000A000FE000C94000024E630E094E08BB1892738
:1000B0008BB94FEF59EF80E0415050408040E1F75D
:1000C00000C000002150310989F79FEF29E648E17F
:1000D000915020404040E1F700C0000008955A9A36
:1000E0002FEF89E698E1215080409040E1F700C071
:1000F00000005A982FEF89E698E121508040904007
:10010000E1F700C000000895ECEBF0E08081882367
:10011000ECF7089520910001309101012F5F3F4FCE
:1001200030930101209300012091B900287F30E035
:1001300090E02817390719F00E94530008950E9493
:100140006F000895ECEBF0E08081846A808308956D
:10015000529AE4E6F0E080818F778083CCEBD0E0A8
:1001600088818E7F88838CE38093B800E9EBF0E090
:100170008081816080830E94A2000E94840088E0C8
:100180000E948A002FEF89E698E12150804090403C
:10019000E1F700C000000BEB10E080EEF801808377
:1001A0000F2EF4E8FF2EF02DF8820E94840088E1E3
:1001B0000E948A0088E1F8018083F8820E9484000E
:1001C00088E20E948A000E94A2000E94840080E1CE
:1001D0000E948A0081EEF8018083F8820E948400E8
:1001E00080E40E948A00F8820E94840088E50E94D0
:1001F0008A00F801808184E98883FFCFF894FFCFDB
:00000001FF
