S01500004D756C74694D6964695F3332382E7372656385
S11300000C943B000C9458000C9458000C94580029
S11300100C9458000C9458000C9458000C945800FC
S11300200C9458000C9458000C9458000C945800EC
S11300300C9458000C9458000C94B8010C9458007B
S11300400C9458000C9458000C9458000C945800CC
S11300500C9458000C9462010C9458000C945800B1
S11300600C9458000C94580068006E0074007A00D8
S1130070800086008C0011241FBECFEFD8E0DEBFC5
S1130080CDBF11E0A0E0B1E0EAE6F4E002C00590E3
S11300900D92AA30B107D9F721E0AAE0B1E001C07E
S11300A01D92A034B207E1F70E9453010C9433026D
S11300B00C940000ECE7F0E02081287F2083019776
S11300C08730910570F58C5C9F4FFC010C941902EC
S11300D0ECE7F0E08081816080830895ECE7F0E054
S11300E08081826080830895ECE7F0E08081836002
S11300F080830895ECE7F0E0808184608083089534
S1130100ECE7F0E08081856080830895ECE7F0E01F
S11301108081866080830895ECE7F0E080818760C9
S11301208083089582E084BD9CE997BD80936E002E
S113013085E085BD0895EAE7F0E0808180648083EE
S11301400895ECE7F0E0808180648083EAE7F0E0E2
S113015080818D6A808380913C0190913D010E9451
S11301605A000E949B000895E0ECF0E0908195FF16
S1130170FDCF8093C60008959093C5008093C4007A
S113018088E18093C10086E08093C20008957F9245
S11301908F929F92AF92BF92CF92DF92EF92FF9293
S11301A00F931F93CF93DF939C012F5F3F4F121642
S11301B013060CF057C00F2EFCE2CF2EF1E0DF2E19
S11301C0F02D0CE111E00F2EFCE0EF2EF1E0FF2EFC
S11301D0F02DC0E0D1E09C012F5F3E4F59010F2E5E
S11301E0F0E97F2EF02D88248394912CF6018191DF
S11301F091916F01892B49F0F80191828082F70176
S113020080819181892B09F504C0F8011182108243
S11302100EC0872D0E94B40088810E94B40080E43F
S11302200E94B400F80180819181892B71F4F70157
S113023080819181019749F4872D0E94B4008881BF
S11302400E94B40080E00E94B400F8018191919171
S11302508F01F701819391937F0173942196CA15BD
S1130260DB0521F6DF91CF911F910F91FF90EF9065
S1130270DF90CF90BF90AF909F908F907F90089524
S113028080EC0E94B40081E40E94B40081EC0E94DE
S1130290B40081E40E94B40082EC0E94B40081E4C2
S11302A00E94B400089514B88FEF8AB90E94920096
S11302B00E94A1008FE190E00E94BC0078940E940B
S11302C04001FFCF1F920F920FB60F9211242F936C
S11302D03F934F935F936F937F938F939F93AF93CA
S11302E0BF93EF93FF9380910A0190910B010196C4
S11302F063E070E00E94050290930B0180930A0171
S1130300029729F580913C0190913D010E945A0089
S113031080913C0190913D01409178005091790089
S1130320FC01EE0FFF1FE45DFE4F21E030E0493C8D
S1130330510510F420E030E031832083019663E01E
S113034070E00E94050290933D0180933C01FF916F
S1130350EF91BF91AF919F918F917F916F915F9139
S11303604F913F912F910F900FBE0F901F901895B2
S11303701F920F920FB60F9211242F933F934F9316
S11303805F936F937F938F939F93AF93BF93EF93F9
S1130390FF9382E090E00E94C7002C9914C08091E2
S11303A0080190910901019771F481E090E0209196
S11303B03E0130913F01232B11F080E090E09093B7
S11303C03F0180933E0180913E0190913F01892B32
S11303D019F084E08BB901C01BB885B18295817096
S11303E08093080110920901FF91EF91BF91AF91A1
S11303F09F918F917F916F915F914F913F912F9139
S11304000F900FBE0F901F90189597FB072E16F4B0
S1130410009407D077FD09D00E941F0207FC05D085
S11304203EF4909581959F4F0895709561957F4F07
S11304300895EE0FFF1F0590F491E02D0994AA1B77
S1130440BB1B51E107C0AA1FBB1FA617B70710F0BB
S1130450A61BB70B881F991F5A95A9F780959095ED
S10D0460BC01CD010895F894FFCF0C
S10D046A5745333C3C3C3C3C010088
S9030000FC
