S01100004D756C74694D6964692E7372656385
S11300000C9435000C9452000C9452000C94520041
S11300100C9452000C9452000C9452000C94520014
S11300200C9452000C9452000C949F010C945200B6
S11300300C9452000C9452000C9452000C945200F4
S11300400C9452000C9452000C9452000C944301F2
S11300500C9452000C9452000C94520062006800FC
S11300606E0074007A008000860011241FBECFEF5A
S1130070D8E0DEBFCDBF11E0A0E0B1E0E6EFF3E0F1
S113008002C005900D92A830B107D9F721E0A8E08D
S1130090B1E001C01D92AE33B207E1F70E9439010D
S11300A00C94F9010C940000ECE7F0E02081287F27
S11300B0208301978730910570F5825D9F4FFC0185
S11300C00C94DF01ECE7F0E0808181608083089587
S11300D0ECE7F0E08081826080830895ECE7F0E053
S11300E08081836080830895ECE7F0E08081846000
S11300F080830895ECE7F0E0808185608083089533
S1130100ECE7F0E08081866080830895ECE7F0E01E
S113011080818760808308958DE084BD8CE987BDEC
S113012082E080936E000895EAE7F0E080818064C5
S113013080830895ECE7F0E0808180648083EAE7BF
S1130140F0E080818D6A808380913C0190913D0133
S11301500E9454000E9494000895E0ECF0E0908125
S113016095FFFDCF8093C60008959093C5008093BA
S1130170C40088E18093C10086E08093C2000895A2
S11301807F928F929F92AF92BF92CF92DF92EF9223
S1130190FF920F931F93CF93DF939C012F5F3F4FE9
S11301A0121613060CF057C00F2EFCE2CF2EF1E00E
S11301B0DF2EF02D0CE111E00F2EFCE0EF2EF1E02C
S11301C0FF2EF02DC0E0D1E09C012F5F3E4F59017E
S11301D00F2EF0E97F2EF02D88248394912CF601C4
S11301E0819191916F01892B49F0F801918280826C
S11301F0F70180819181892B09F504C0F8011182EE
S113020010820EC0872D0E94AD0088810E94AD002F
S113021080E40E94AD00F80180819181892B71F402
S1130220F70180819181019749F4872D0E94AD00E7
S113023088810E94AD0080E00E94AD00F8018191A8
S113024091918F01F701819391937F01739421968A
S1130250CA15DB0521F6DF91CF911F910F91FF9015
S1130260EF90DF90CF90BF90AF909F908F907F9052
S113027008950E948C000E949A0081E090E00E9400
S1130280B5007894FFCF1F920F920FB60F921124EE
S11302902F933F934F935F936F937F938F939F938A
S11302A0AF93BF93EF93FF9381E090E090930901A4
S11302B08093080180910A0190910B01019663E0FB
S11302C070E00E94CB0190930B0180930A01029786
S11302D029F580913C0190913D010E945400809148
S11302E03C0190913D014091780050917900FC01CE
S11302F0EE0FFF1FE45DFE4F21E030E0493C510565
S113030010F420E030E031832083019663E070E054
S11303100E94CB0190933D0180933C01FF91EF91AA
S1130320BF91AF919F918F917F916F915F914F9109
S11303303F912F910F900FBE0F901F9018951F9211
S11303400F920FB60F9211242F933F934F935F9305
S11303506F937F938F939F93AF93BF93EF93FF9389
S113036081E090E0909309018093080182E090E09D
S11303700E94C000FF91EF91BF91AF919F918F9127
S11303807F916F915F914F913F912F910F900FBE8D
S11303900F901F90189597FB072E16F4009407D022
S11303A077FD09D00E94E50107FC05D03EF4909545
S11303B081959F4F0895709561957F4F0895EE0F35
S11303C0FF1F0590F491E02D0994AA1BBB1B51E17A
S11303D007C0AA1FBB1FA617B70710F0A61BB70BB1
S11303E0881F991F5A95A9F780959095BC01CD0156
S10903F00895F894FFCF0C
S10B03F65745333C3C3C3C3C00
S9030000FC
