S013000054433230303441546573742E73726563D3
S11300000C9434000C9449000C9449000C9449005D
S11300100C9449000C9449000C9449000C94490038
S11300200C9449000C9449000C9449000C94490028
S11300300C9449000C9449000C9449000C94490018
S11300400C9449000C9449000C9449000C94490008
S11300500C9449000C9449000C9449000C944900F8
S11300600C9449000C94490011241FBECFEFD8E032
S1130070DEBFCDBF11E0A0E0B1E0E0ECF1E002C0F2
S113008005900D92AC30B107D9F70E94D7000C94BB
S1130090DE000C9400002D9A85ED8A95F1F700009E
S11300A085B1807C85B908951AB82A982B9A5F9BEC
S11300B004C00E944B005F99FCCF8FEF8AB908956A
S11300C0CF93C82F0E945400CBB985B1837F85B9E3
S11300D00E944B001BB8CF91089584B18C6284B9FF
S11300E08FEF8AB92FEF89EF90E021508040904044
S11300F0E1F700C0000088E30E9460008FE19EE405
S11301000197F1F700C0000088E30E9460008FE1CE
S113011093E00197F1F700C0000081E00E946000C5
S11301208FE19EE40197F1F700C0000086E00E9491
S1130130600087EC90E00197F1F700C000008FE0C9
S11301400E94600087EC90E00197F1F700C0000086
S11301500895CF93C82F0E945400CBB92B982A9AA4
S11301600E944B001BB8CF910895EF92FF920F931A
S11301701F93CF93DF938C017C01C0E0D0E006C0D5
S1130180F70181917F010E94A9002196F801019055
S11301900020E9F73197E01BF10BCE17DF0780F35E
S11301A0DF91CF911F910F91FF90EF9008950E94DE
S11301B06D0080E091E00E94B500FFCFF894FFCF7E
S10F01C04162436445664768694A0000D8
S9030000FC
