S01500004D6964694C6F6769635F3332352E73726563A5
S11300000C942E000C9440000C9440000C9440007E
S11300100C9440000C9440000C9440000C9440005C
S11300200C9440000C9440000C946A020C94400020
S11300300C9440000C9440000C9440000C9440003C
S11300400C9440000C9440000C9440000C9440002C
S11300500C9440000C9440000C94400011241FBEEA
S1130060CFEFD8E0DEBFCDBF21E0A0E0B1E001C01A
S11300701D92AE38B207E1F70E943D020C94CE0205
S11300800C940000E1E6F0E080E88083108208959B
S11300902CB52C7F2CBD2DB52E7F2DBD8031910527
S11300A0D9F034F48230910561F0089771F0089525
S11300B080349105E1F08038910519F1809739F584
S11300C00FC08DB581608DBD08958DB581608DBDE6
S11300D08CB581608CBD08958CB581608CBD08950C
S11300E08DB581608DBD8CB582608CBD08958DB554
S11300F081608DBD8CB581608CBD8CB582608CBDFA
S113010008958CB581608CBD8CB582608CBD0895DA
S1130110E4E8F1E09083818372836383CF010895DF
S113012084B1876084B98CB580658CBD08958EBD1B
S11301300DB407FEFDCF8EB50895CF93DF93289AB3
S1130140CBE0D0E08FEF0E9497002197D9F7DF91A1
S1130150CF910895DF92EF92FF920F931F93CF9365
S1130160DF93F82EC42F152FE62ED72ED22F2898E2
S113017080640E9497008D2D0E9497008E2D0E940E
S11301809700812F0E949700EC2E8C2F0E949700DD
S11301908D2F0E9497008FEF0E949700002361F03B
S11301A0C8E8D1E010E008571E4F8FEF0E94970077
S11301B08993C017D107C9F7289A88E0F81208C0B4
S11301C081E090E020918C01E21204C080E002C042
S11301D080E090E0DF91CF911F910F91FF90EF901D
S11301E0DF9008950F93CF93DF930E9490000E94B5
S11301F09D00C8E8D1E006E025E940E050E0BA01FE
S113020080E00E94AA0088818130A9F706E027E8EF
S11302104AEA51E060E070E088E00E94AA00892B7D
S1130220A9F7C8E8D1E006E02FEF40E050E0BA01BA
S113023087E30E94AA002FEF40E050E0BA0189E270
S11302400E94AA0088818111EECF81E088B9DF91F4
S1130250CF910F910895AF92BF92CF92DF92EF9218
S1130260FF920F931F93CF93DF936A017901EA0101
S1130270C20FD31F28980E9488005C0181E50E9468
S11302809700F50180810E949700F50181810E9409
S11302909700F50182810E949700F50183810E94F5
S11302A097008FEF0E9497000F2EF0E0AF2EF1E041
S11302B0BF2EF02DF5018081918101969183808379
S11302C08FEF0E949700F501808191814E971CF475
S11302D08EB58111EFCF0F2EF0E0AF2EF1E0BF2EDF
S11302E0F02DF501828193810196938382838FEFB0
S11302F00E949700F501828193814E9724F0C114E6
S1130300D10429F40FC08EB58E3F59F7F8CFA12C34
S1130310B12C8FEF0E949700FFEFAF1ABF0AAC1405
S1130320BD04B9F7E114F10461F06801E00EF11EB7
S11303308FEF0E949700F60181936F01EE15FF0580
S1130340B9F7C115F2E0DF0740F48FEF0E94970080
S11303502196C11582E0D807C1F78FEF0E9497005C
S11303608FEF0E949700289AC0E0D1E00F2EF8E8A2
S1130370EF2EF1E0FF2EF02D8C819D8101969D835F
S11303808C8306E02FEF40E050E0BA018CE00E943D
S1130390AA008C819D814E9724F4F70180818111FC
S11303A0EBCFDF91CF911F910F91FF90EF90DF90F2
S11303B0CF90BF90AF900895E82FF0E0EC5BFE4F34
S11303C020812F3F81F090E0FB01E90FF11D208394
S11303D09F5F392F380FE32FF0E0EC5BFE4F208155
S11303E02F3F91F702C0382F90E0FB01E90FF11D78
S11303F08FEF808381E0830F08958CE084BD8BE2CE
S113040087BD82E080936E000895E0ECF0E0908177
S113041095FFFDCF8093C60008959093C500809307
S1130420C40088E18093C10086E08093C2000895EF
S1130430E0910801F0E0E45DFE4FE081F0E0E45F6C
S1130440FE4F80810E940502E0910801F0E0E45D26
S1130450FE4FE081F0E0E45FFE4F81810E940502DF
S1130460E0910801F0E0E45DFE4FE081F0E0E45F3C
S1130470FE4F82810E94050208950E9442000E945C
S1130480F20080E290E00E94480004E411E020E4DD
S113049030E040E050E060E07AE281E890E00E94E1
S11304A02B016CE071E080E00E94DC0180930B0181
S11304B06CE371E00E94DC0180930A016CE271E05C
S11304C00E94DC018FE090E00E940D020E94FD0179
S11304D07894FFCF1F920F920FB60F9211242F938F
S11304E03F934F935F936F937F938F939F93AF93B8
S11304F0BF93EF93FF9380910601909107010196BA
S11305008233910529F0909307018093060135C049
S113051010920701109206018091090190E0FC01FC
S1130520E45CFE4F20812F3F41F121110AC08091EC
S11305300801E82FF0E0E45DFE4F9081911107C0BF
S113054014C0FC01E45CFE4F2150208316C00E94BD
S11305501802809108018F5F80930801E82FF0E072
S1130560E45DFE4F90819111F2CF8F5F809308017B
S1130570809109018F5F80930901FF91EF91BF91F1
S1130580AF919F918F917F916F915F914F913F9127
S11305902F910F900FBE0F901F901895F894FFCFD6
S9030000FC
