:100000000C9434000C9449000C9449000C94490061
:100010000C9449000C9449000C9449000C9449003C
:100020000C9449000C9449000C9449000C9449002C
:100030000C9449000C9449000C9449000C9449001C
:100040000C9449000C9449000C9449000C9449000C
:100050000C9449000C9449000C9449000C944900FC
:100060000C9449000C94490011241FBECFEFD8E036
:10007000DEBFCDBF11E0A0E0B1E0E8EAF1E002C0F0
:1000800005900D92A631B107D9F70E949C000C94FF
:10009000D2000C9400002D9A80EA8A95F1F785B180
:1000A000807C85B908951AB82B9A85B1887F85B967
:1000B0005F9B04C00E944B005F99FCCF8FEF8AB911
:1000C0000895CF93C82F0E945300CBB985B1837F89
:1000D00085B90E944B001BB8CF910895CF93C82FCC
:1000E0000E945300CBB92B982A9A0E944B001BB850
:1000F000CF910895EF92FF920F931F93CF93DF93C9
:100100008C017C01C0E0D0E006C0F70181917F0145
:100110000E946E002196F80101900020E9F73197C6
:10012000E01BF10BCE17DF0780F3DF91CF911F911A
:100130000F91FF90EF90089584B18C6284B98FE5A0
:100140009AEE0197F1F700C0000081E00E94610083
:100150008FE39FE10197F1F700C0000088E30E9460
:10016000610087EC90E00197F1F700C000008EE09D
:100170000E94610087EC90E00197F1F700C0000059
:1001800080E091E00E947A0080EC0E94610087ECA0
:1001900090E00197F1F700C000008BE091E00E9431
:0801A0007A00FFCFF894FFCFB5
:1001A80030313233343536373839004162436445AB
:0601B800664768496A0079
:00000001FF
