:100000000C9434000C9451000C9451000C94510049
:100010000C9451000C9451000C9451000C9451001C
:100020000C9451000C9451000C9451000C9451000C
:100030000C9451000C9451000C9451000C945100FC
:100040000C9451000C9451000C9451000C945100EC
:100050000C9451000C9451000C9451000C945100DC
:100060000C9451000C94510011241FBECFEFD8E026
:10007000DEBFCDBF11E0A0E0B1E0E6E3F1E002C0F9
:1000800005900D92A030B107D9F721E0A0E0B1E0D2
:1000900001C01D92A030B207E1F70E9466000C94E7
:1000A00099000C940000E0ECF0E0908195FFFDCF0A
:1000B0008093C60008959093C5008093C40088E1A2
:1000C0008093C10086E08093C20008958FE190E0A4
:1000D0000E945B0078942FEF83EC99E021508040E0
:1000E0009040E1F700C0000080E90E94530080E6E4
:1000F0000E94530080E40E9453002FEF81EE94E0B1
:10010000215080409040E1F700C0000080E90E944B
:10011000530080E60E94530080E00E9453002FEFBE
:1001200081EE94E0215080409040E1F700C0000053
:06013000D2CFF894FFCFCE
:00000001FF
