:100000000C9435000C9452000C9452000C94520045
:100010000C9452000C9452000C9452000C94520018
:100020000C9452000C9452000C94F4070C9452005F
:100030000C9452000C9452000C9452000C945200F8
:100040000C9452000C9452000C9452000C9497079C
:100050000C9452000C9452000C9452006200680000
:100060006E0074007A008000860011241FBECFEF5E
:10007000D8E0DEBFCDBF11E0A0E0B1E0ECE5F3E1F8
:1000800002C005900D92A63BB107D9F725E0A6EB7B
:10009000B1E001C01D92A73DB207E1F70E944207FF
:1000A0000C94AC090C940000ECE7F0E02081287F70
:1000B000208301978730910570F5825D9F4FFC0189
:1000C0000C949209ECE7F0E08081816080830895D0
:1000D000ECE7F0E08081826080830895ECE7F0E057
:1000E0008081836080830895ECE7F0E08081846004
:1000F00080830895ECE7F0E0808185608083089537
:10010000ECE7F0E08081866080830895ECE7F0E022
:100110008081876080830895EAE7F0E080818064D1
:1001200080830895ECE7F0E0808180648083EAE7D3
:10013000F0E080818E6A808380918F059091900598
:100140000E9454000E948C000895179A8AE68A95AE
:10015000F1F700C01798089517B8169A82B1807CFD
:1001600082B9479B04C00E94A5004799FCCF8FEF3E
:1001700087B98DE08A95F1F700000895CF93C82FD5
:100180000E94AC00C8B982B18F7982B90E94A500E3
:1001900018B8CF91089581B1806E81B98FE295E74B
:1001A0000197F1F700C0000088E390E00E94BE00D4
:1001B0008FE097E20197F1F700C0000088E390E03C
:1001C0000E94BE0087EE93E00197F1F700C00000A7
:1001D00088E390E00E94BE0095E89A95F1F7000050
:1001E00081E090E00E94BE008FE99FE00197F1F767
:1001F00000C0000086E090E00E94BE0095E89A955D
:10020000F1F700008EE090E00E94BE0085E88A953C
:10021000F1F700000895CF93C82F0E94AC00C8B931
:100220001698159A0E94A50018B8CF910895CF93FB
:10023000DF93C4E1D0E080E290E00E940B012197BF
:10024000D1F7DF91CF910895EF92FF920F931F9313
:10025000CF93DF938C017C01C0E0D0E006C0F701B2
:1002600081917F010E940B012196F80101900020ED
:10027000E9F73197E01BF10BCE17DF0780F3DF9131
:10028000CF911F910F91FF90EF9008952CB52C7F87
:100290002CBD2DB52E7F2DBD80319105D9F034F4C4
:1002A0008230910561F0089771F0089580349105CE
:1002B000E1F08038910519F1809739F50FC08DB5BF
:1002C00081608DBD08958DB581608DBD8CB58160D7
:1002D0008CBD08958CB581608CBD08958DB581600D
:1002E0008DBD8CB582608CBD08958DB581608DBD4E
:1002F0008CB581608CBD8CB582608CBD08958CB549
:1003000081608CBD8CB582608CBD0895EFE3F5E013
:100310009083818372836383CF01089584B1876062
:1003200084B98CB580658CBD08958EBD0DB407FE73
:10033000FDCF8EB50895CF93DF93289ACBE0D0E020
:100340008FEF0E9495012197D9F7DF91CF91089502
:10035000DF92EF92FF920F931F93CF93DF93F82ECC
:10036000C42F152FE62ED72ED22F289880640E94F6
:1003700095018D2D0E9495018E2D0E949501812F52
:100380000E949501EC2E8C2F0E9495018D2F0E94CA
:1003900095018FEF0E949501002361F0C3E4D5E041
:1003A00010E00D5B1A4F8FEF0E9495018993C017E3
:1003B000D107C9F7289A88E0F81208C081E090E0D8
:1003C00020914705E21204C080E002C080E090E086
:1003D000DF91CF911F910F91FF90EF90DF900895E3
:1003E0000F93CF93DF930E948E010E949B01C3E481
:1003F000D5E006E025E940E050E0BA0180E00E9447
:10040000A80188818130A9F706E027E84AEA51E08F
:1004100060E070E088E00E94A801892BA9F7C3E49E
:10042000D5E006E02FEF40E050E0BA0187E30E94FC
:10043000A8012FEF40E050E0BA0189E20E94A80134
:1004400088818111EECF81E088B9DF91CF910F9142
:100450000895AF92BF92CF92DF92EF92FF920F93E7
:100460001F93CF93DF936A017901EA01C20FD31F73
:1004700028980E9486015C0181E50E949501F501A2
:1004800080810E949501F50181810E949501F5010D
:1004900082810E949501F50183810E9495018FEF71
:1004A0000E9495010F2EF8EBAF2EF1E0BF2EF02D3C
:1004B000F501808191810196918380838FEF0E9465
:1004C0009501F501808191814E971CF48EB58111C3
:1004D000EFCF0F2EF8EBAF2EF1E0BF2EF02DF50190
:1004E000828193810196938382838FEF0E9495018D
:1004F000F501828193814E9724F0C114D10429F42F
:100500000FC08EB58E3F59F7F8CFA12CB12C8FEFCD
:100510000E949501FFEFAF1ABF0AAC14BD04B9F7F2
:10052000E114F10461F06801E00EF11E8FEF0E940A
:100530009501F60181936F01EE15FF05B9F7C1151D
:10054000F2E0DF0740F48FEF0E9495012196C1157C
:1005500082E0D807C1F78FEF0E9495018FEF0E94CC
:100560009501289AC8EBD1E00F2EF3E4EF2EF5E0C9
:10057000FF2EF02D8C819D8101969D838C8306E05A
:100580002FEF40E050E0BA018CE00E94A8018C817E
:100590009D814E9724F4F70180818111EBCFDF918B
:1005A000CF911F910F91FF90EF90DF90CF90BF9070
:1005B000AF900895CF93DF93AC01FC01E15CFC4F59
:1005C00090819F3F81F0DB01FA01E05CFC4F20E06D
:1005D00030E09D932F5F3F4FEA01C20FD31F9191EF
:1005E0009F3FB9F703C0EA0120E030E0FB01E20FD2
:1005F000F31F8FEF8083CE010196DF91CF91089595
:100600001092C3011092C2011092C1011092C00158
:1006100068EC71E080E090E00E94DA029093C701FC
:100620008093C6016DE073E00E94DA029093C501E9
:100630008093C40161E872E00E94DA0208958DE0BF
:1006400084BD87E287BD82E080936E000895E0EC70
:10065000F0E0908195FFFDCF8093C60008959093C0
:10066000C5008093C40088E18093C10086E0809338
:10067000C2000895E1E6F0E080E8808310820895EA
:10068000EF92FF920F931F93CF93DF937C01EB01C7
:1006900080E80E94BE000E94170180E80E94BE0010
:1006A000209729F48EE491E00E9424010EC0C1300D
:1006B000D10529F488E591E00E94240106C0229723
:1006C00021F482E691E00E9424018CE691E00E94F0
:1006D00024011E141F049CF48701C0E0D0E0011522
:1006E000110531F08FEF0E940B010150110903C079
:1006F00080E20E940B012196CE15DF0581F7DF9184
:10070000CF911F910F91FF90EF90089580EC0E9480
:10071000BE000E94170180EC0E94BE0083E791E0BA
:100720000E9424018091440190914501892B29F078
:100730008DE791E00E942401089586E891E00E94EF
:1007400024010895CF93DF93EC0184E90E94BE0059
:100750000E94170184E90E94BE008091440190919B
:100760004501892B29F48FE891E00E94240116C0ED
:10077000C130D10551F0C330D10561F0CD2B71F4FA
:100780008EE191E00E94240109C080E191E00E9485
:10079000240104C080E091E00E942401DF91CF9108
:1007A000089584ED0E94BE0080EA91E00E94240139
:1007B00008958130910539F01CF4892B51F008C05F
:1007C000079764F005C066E070E480E090E008956B
:1007D000089561E070E480E090E0089560E070E0EA
:1007E00080E090E008955F926F927F928F929F9247
:1007F000AF92BF92CF92DF92EF92FF920F931F932F
:10080000CF93DF9301964C01181619060CF088C09F
:100810000F2EFFE7AF2EF5E0BF2EF02D0F2EFFE5D8
:10082000EF2EF5E0FF2EF02D0FE415E00F2EFFE682
:10083000CF2EF5E0DF2EF02D0F2EF0E95F2EF02DFC
:10084000C0E0D0E066246394712CF5018191919110
:100850005F01892B49F0F70171826082F801808184
:100860009181892B29F04BC0F7011182108225C09C
:10087000F60180819181892B09F441C0852D0E9468
:100880002703F601808191810197FC01EE0FFF1F84
:10089000EE0FFF1FEE0FFF1FE81BF90BEC0FFD1F04
:1008A000E15DFE4F80810E94270380E40E942703C0
:1008B000F70180819181892B11F5F8018081918167
:1008C0000197E9F4852D0E942703F601808191812B
:1008D0000197FC01EE0FFF1FEE0FFF1FEE0FFF1F32
:1008E000E81BF90BEC0FFD1FE15DFE4F80810E94BC
:1008F000270380E00E942703F60111821082F7018E
:10090000819191917F01F801819391938F012196BB
:100910005394F2E0CF0ED11CC815D9050CF495CF35
:10092000DF91CF911F910F91FF90EF90DF90CF90CB
:10093000BF90AF909F908F907F906F905F90089541
:100940008091D3059091D405019709F047C010928A
:10095000D4051092D3058091D1059091D2050097CE
:1009600099F480EC0E94270381E00E94270381EC28
:100970000E94270381E00E94270382EC0E94270344
:1009800081E00E94270308958130910599F480EC5D
:100990000E94270381E40E94270381EC0E94270321
:1009A00081E40E94270382EC0E94270381E40E94D5
:1009B00027030895029791F480EC0E94270387E2B1
:1009C0000E94270381EC0E94270387E20E942703ED
:1009D00082EC0E94270387E20E9427030895089A69
:1009E0008AB183608AB98DB18C608DB983B3886117
:1009F00083BB08959BEA899F912D11249695969526
:100A00009695292F220F920F990F990F891B8230EB
:100A100028F41092D0051092CF050895282F30E0C9
:100A2000A901425051094230510538F481E090E06B
:100A30009093D0058093CF05089590E08430910580
:100A400039F482E090E09093D0058093CF0508952B
:100A5000A901455051094230510538F483E090E036
:100A60009093D0058093CF050895A901475051096F
:100A70004230510538F484E090E09093D0058093A3
:100A8000CF050895295031092230310538F485E029
:100A900090E09093D0058093CF0508950B9739F49B
:100AA00086E090E09093D0058093CF05089587E08D
:100AB00090E09093D0058093CF05089580E990E071
:100AC0000E942703E091C001F091C101EF57FD4F53
:100AD000E081F0E0E853FE4F808190E00E94270320
:100AE000E091C001F091C101EF57FD4FE081F0E0CE
:100AF000E853FE4F818190E00E942703E091C001FE
:100B0000F091C101EF57FD4FE081F0E0E853FE4F57
:100B1000808190E00E94FA0408952091CF053091E1
:100B2000D005232BC1F42091CD053091CE05232B88
:100B300009F04FC027E030E03093D0052093CF0577
:100B4000109A21E030E03093CE052093CD059093AC
:100B5000BE058093BD052091CF053091D005213091
:100B60003105C1F42091CB053091CC05232B09F040
:100B70004FC027E030E03093D0052093CF05589A3E
:100B800021E030E03093CC052093CB059093BC0559
:100B90008093BB052091CF053091D00522303105DF
:100BA000C1F42091C9053091CA05232B09F04FC02B
:100BB00027E030E03093D0052093CF05599A21E00B
:100BC00030E03093CA052093C9059093BA0580930D
:100BD000B9052091CF053091D00523303105C1F4FE
:100BE0002091C7053091C805232B09F04EC027E09E
:100BF00030E03093D0052093CF05739A21E030E0A8
:100C00003093C8052093C7059093B8058093B70526
:100C10002091CF053091D00524303105C1F42091C9
:100C2000C5053091C605232B09F04DC027E030E003
:100C30003093D0052093CF05729A21E030E03093B5
:100C4000C6052093C5059093B6058093B505209100
:100C5000CF053091D00525303105B9F42091C30579
:100C60003091C405232B79F527E030E03093D0058F
:100C70002093CF05A49A21E030E03093C40520935F
:100C8000C3059093B4058093B3052091CF053091AF
:100C9000D00526303105B9F42091C1053091C20547
:100CA000232B89F427E030E03093D0052093CF0543
:100CB000A39A21E030E03093C2052093C1059093C0
:100CC000B2058093B10501962091BD053091BE0516
:100CD0008217930729F01092CE051092CD0505C01A
:100CE0001092CE051092CD0510982091BB05309141
:100CF000BC058217930729F01092CC051092CB0502
:100D000005C01092CC051092CB0558982091B905DA
:100D10003091BA058217930729F01092CA051092F4
:100D2000C90505C01092CA051092C90559982091AD
:100D3000B7053091B8058217930729F01092C805BE
:100D40001092C70505C01092C8051092C70570988B
:100D50002091B5053091B6058217930729F01092BE
:100D6000C6051092C50505C01092C6051092C505AE
:100D700071982091B3053091B4058217930729F03B
:100D80001092C4051092C30505C01092C4051092BC
:100D9000C305A3982091B1053091B205821793073E
:100DA00029F01092C2051092C10508951092C20553
:100DB0001092C105A49808958EE0E1EAF5E0A3E958
:100DC000B5E001900D928A95E1F743E955E0DA012B
:100DD00061E070E012962D913C911397161617065C
:100DE0009CF48D919C911197281739076CF4FD01A3
:100DF0009383828331832083E417F50729F092914E
:100E0000829128173907A4F36F5F7F4F12966730DE
:100E1000710501F708952091930530919405309361
:100E200092052093910580918F0590919005FC018A
:100E3000EE0FFF1FE158FA4F41E050E02F3B310524
:100E400014F440E050E051834083A9014D5D510905
:100E50004F34510550F4880F991FFC01E159FA4FA6
:100E600081E090E0918380830895253531404CF0F6
:100E7000880F991FFC01E159FA4F82E090E09183BD
:100E8000808308950E943A032FE789EA93E0215076
:100E900080409040E1F700C000000E94CB006091CC
:100EA000D1057091D20584E090E00E9440030E9439
:100EB00086038091BE019091BF010E94A2030E940F
:100EC000D10381B1817E81B90E94EF040E94F001BB
:100ED00080E290E00E9446018091BE019091BF01A6
:100EE0000E94D903DC01CB0180579F4FAF4FBF4F0A
:100EF000BC01CD01052E59E0660F771F881F991F91
:100F00005A95D1F7502D0FE313E020E032E040E096
:100F100050E00E9429020E9400030E9492008FE08C
:100F200090E00E942F030E941F037894FFCF1F922E
:100F30000F920FB60F9211242F933F934F935F930D
:100F40006F937F938F939F93AF93BF93EF93FF9391
:100F500081E090E090934C0580934B0580914D0586
:100F600090914E052091780030917900FC01EE0FB0
:100F7000FF1FEF55FA4F31832083019667E070E041
:100F80000E947E0990934E0580934D050697D9F4F3
:100F900080917800909179009093AE058093AD0593
:100FA0000E94DC060E940B0780918F0590919005AE
:100FB000019667E070E00E947E099093900580930F
:100FC0008F050E945400FF91EF91BF91AF919F91C7
:100FD0008F917F916F915F914F913F912F910F90E2
:100FE0000FBE0F901F9018951F920F920FB60F9281
:100FF00011240F931F932F933F934F935F936F93FE
:101000007F938F939F93AF93BF93EF93FF938091C1
:10101000B6019091B70101969093B7018093B60104
:101020008091BF059091C005019668EC70E00E9428
:101030007E099093C0058093BF05049924C08091D8
:101040004601909147010197F1F481E090E02091F1
:10105000440130914501232B11F080E090E0909302
:1010600045018093440181E090E02091AF053091EB
:10107000B005232B11F080E090E09093B0058093B1
:10108000AF050E94860380B18295817080934601EE
:101090001092470102990CC080914801909149013A
:1010A000019731F481E090E090934A0580934905DF
:1010B00080B1829581708093480110924901019915
:1010C0002CC080914C0190914D01019731F581E048
:1010D00090E02091D5053091D605232B11F080E0CA
:1010E00090E09093D6058093D50581E090E09093B1
:1010F000D4058093D3058091D1059091D2050196B6
:1011000063E070E00E947E099093D2058093D10540
:10111000BC0184E090E00E94400380B1869581701C
:1011200080934C0110924D010E94A00480914401D3
:1011300090914501892B21F086E090E00E94F30315
:101140008091AF059091B005892B09F4C4C0039933
:1011500019C080914A0190914B01019799F48091B7
:10116000BE019091BF01019681709078992324F47B
:1011700001978E6F9F6F01969093BF018093BE0180
:101180000E94A20380B183FB882780F980934A01E3
:1011900010924B018091490590914A05892B51F19C
:1011A00010924A05109249051092B7011092B601AB
:1011B0008091BE019091BF010E94D903DC01CB0157
:1011C00080579F4FAF4FBF4FBC01CD01052E59E057
:1011D000660F771F881F991F5A95D1F7502D0FE37F
:1011E00013E020E032E040E050E00E9429020E943B
:1011F00000036BC08091B6019091B701499709F047
:1012000064C01092B7011092B6012091C2013091D2
:10121000C301F901E35FFC4F80818F3FA9F188236F
:1012200031F0F901E35FFC4F815080834EC0809123
:10123000C0019091C101FC01EF57FD4F20812F3F6C
:1012400009F443C0222389F00E945E058091C00109
:101250009091C10101969093C1018093C001FC015E
:10126000EF57FD4F20812111EFCF01969093C101DF
:101270008093C0018091C2019091C3010196909327
:10128000C3018093C20121C08091BE019091BF0132
:101290000E94D903DC01CB0180579F4FAF4FBF4F56
:1012A000BC01CD01052E59E0660F771F881F991FDD
:1012B0005A95D1F7502D0FE313E020E032E040E0E3
:1012C00050E00E9429020E9400038091BF05909186
:1012D000C0050E948D05FF91EF91BF91AF919F9145
:1012E0008F917F916F915F914F913F912F911F91BE
:1012F0000F910F900FBE0F901F90189597FB072E20
:1013000016F4009407D077FD09D00E94980907FCD5
:1013100005D03EF4909581959F4F08957095619505
:101320007F4F0895EE0FFF1F0590F491E02D099473
:10133000AA1BBB1B51E107C0AA1FBB1FA617B707FB
:1013400010F0A61BB70B881F991F5A95A9F7809517
:0C1350009095BC01CD010895F894FFCFEA
:10135C002020204D757369632033204E616D65002C
:10136C00202020546865204461776E2020002020C6
:10137C00204C6F6E646F6E20427269646765004822
:10138C004A4C4D4F51533C3E40414345473032341B
:10139C003537393B010001000100010001005069A3
:1013AC00616E6F20202020004775697461722020C7
:1013BC00200053617820202020202000506F77657A
:1013CC00723A002020204D6F64653A20004D7573F1
:1013DC00696369616E004175746F706C617900208E
:1013EC0020456E6A6F7920506C6179696E672100B7
:1013FC004D6F6465204E657874204F4B20205469E6
:06140C006D627265000034
:00000001FF
